:100000006F00C00813000000130000001300000080
:100010001300000013000000130000001300000094
:100020001300000013000000130000001300000084
:100030001300000013000000130000001300000074
:100040001300000013000000130000001300000064
:1000500013000000130000006F0060096F00600AC9
:100060006F00600B6F00600C6F00600D6F00600E22
:100070006F00A0106F00200F6F00A0126F00201102
:0C0080006F00C0006F0020136F00201400
:10008C0073105030930000000681868106828682B0
:10009C000683868306848684068586850686868600
:1000AC000687868717411000130101F5170710000A
:1000BC001307870097071000938707006357F70013
:1000CC00232007001107E3DDE7FE01458545EF100E
:1000DC00A01901458145EF00C0502A84EF10402E35
:1000EC0022851D7186CEEF00C00E97000000938014
:1000FC0020106F00E0401D7186CEEF00800D970040
:10010C0000009380E00E6F0020401D7186CEEF0042
:10011C00400C970000009380A00D6F00E0481D710B
:10012C0086CEEF00000B970000009380600C6F00F0
:10013C00A03E1D7186CEEF00C00997000000938091
:10014C00200B6F00E03D1D7186CEEF0080089700FC
:10015C0000009380E0096F00203D1D7186CEEF00FA
:10016C004007970000009380A0086F00E03C1D71D1
:10017C0086CEEF00000697000000938060076F00AA
:10018C00203B1D7186CEEF00C004970000009380C9
:10019C0020066F00603B1D7186CEEF008003970038
:1001AC0000009380E0046F00A0391D7186CEEF0033
:1001BC004002970000009380A0036F00A0051D7102
:1001CC0086CEEF00000197000000938060026F0064
:1001DC00E0040EC012C216C41AC61EC82ACA2ECCFF
:1001EC0032CE36D03AD23ED46780000082411242E1
:1001FC00A2423243C2435245E245724682561257DE
:10020C00A257F6402561730020308280411122C62E
:10021C00000801A0411122C6000801A0411122C60C
:10022C00000801A0797122D60018232EA4FC232CDF
:10023C00B4FCB777101A9C432326F4FE8327C4FD25
:10024C000547B317F70013C7F7FF8327C4FEF98FD1
:10025C002326F4FE8327C4FD032784FD3317F70000
:10026C008327C4FED98F2326F4FEB777101A0327F1
:10027C00C4FE98C30100325445618280797122D644
:10028C000018232EA4FCB777101A9C432326F4FEE7
:10029C000327C4FE8327C4FDB357F740858B232661
:1002AC00F4FE8327C4FE3E85325445618280797109
:1002BC0022D60018232EA4FC232CB4FCB717101A3A
:1002CC009C432326F4FE832784FD91EF8327C4FDF2
:1002DC000547B317F70013C7F7FF8327C4FEF98F41
:1002EC002326F4FE19A88327C4FD05473317F7000E
:1002FC008327C4FED98F2326F4FEB717101A0327C1
:10030C00C4FE98C30100325445618280797122D6B3
:10031C000018232EA4FCB717101A9C432326F4FEB6
:10032C000327C4FE8327C4FD8607B357F740858B8C
:10033C002326F4FE8327C4FE3E8532544561828019
:10034C00797122D60018232EA4FC232CB4FCB717E9
:10035C00101AA1079C432326F4FE832784FD91EFFA
:10036C008327C4FD0547B317F70013C7F7FF83278F
:10037C00C4FEF98F2326F4FE19A88327C4FD054774
:10038C003317F7008327C4FED98F2326F4FEB71743
:10039C00101AA1070327C4FE98C30100325445610B
:1003AC008280797122D60018232EA4FCB717101A5C
:1003BC0091079C432326F4FE0327C4FE8327C4FD28
:1003CC00B357F740858B2326F4FE8327C4FE3E8566
:1003DC00325445618280797122D60018232EA4FCF8
:1003EC00232CB4FCB717101AB1079C432326F4FE38
:1003FC00832784FD91EF8327C4FD0547B317F700CE
:10040C0093C7F7FF0327C4FEF98F2326F4FE19A820
:10041C008327C4FD0547B317F7000327C4FED98F04
:10042C002326F4FEB717101AB1070327C4FE98C38E
:10043C000100325445618280797122D60018232E36
:10044C00A4FC232CB4FCB717101AC1079C43232619
:10045C00F4FEB717101AD1079C432324F4FE83270C
:10046C0084FD858B91EF8327C4FD0547B317F700F7
:10047C0093C7F7FF0327C4FEF98F2326F4FE19A8B0
:10048C008327C4FD0547B317F7000327C4FED98F94
:10049C002326F4FE832784FD898B91EF8327C4FDEB
:1004AC000547B317F70093C7F7FF032784FEF98FAF
:1004BC002324F4FE19A88327C4FD0547B317F700BE
:1004CC00032784FED98F2324F4FEB717101AC10713
:1004DC000327C4FE98C3B717101AD107032784FE4D
:1004EC0098C30100325445618280411122C6000834
:1004FC00B717101AE1079C433E85324441018280B4
:10050C00411122C6000801A0411122C6000801A019
:10051C00411122C6000801A0411122C6000801A009
:10052C00411122C6000801A0411122C6000801A0F9
:10053C00411122C6000801A0411122C6000801A0E9
:10054C00411122C6000801A0411122C6000801A0D9
:10055C00011122CE0010F32700302326F4FE83274E
:10056C00C4FEDD9B2326F4FE8327C4FE7390073064
:10057C00814773900730010072440561828001113C
:10058C0022CE0010F32700302326F4FE8327C4FE6E
:10059C0093E787002326F4FE8327C4FE739007306D
:1005AC000100724405618280411106C622C4000814
:1005BC00B707101A9C43BE85B707100013850700B8
:1005CC00ED25B747101AB1079443B747101AB10776
:1005DC0037070001558F98C30100B24022444101F6
:1005EC008280011106CE22CC0010232604FE31A8F5
:1005FC0085450325C4FE653981450325C4FE893331
:10060C008327C4FE85072326F4FE0327C4FE9D47DB
:10061C00E3D0E7FE353FB1450145EF00F044054519
:10062C00EF00105CB747101A9443B747101A3707FE
:10063C000001558F98C3A137232404FE832784FE21
:10064C00FD179D8B85453E85E539832784FE9D8B63
:10065C0081453E85F531232204FE31A0832744FEDB
:10066C0085072322F4FE032744FEE1679387F7698D
:10067C00E3D6E7FE832784FE85072324F4FE7DBFA3
:10068C00797122D60018232EA4FC8327C4FD13D71E
:10069C0017008327C4FD8983BA972326F4FE83278A
:1006AC00C4FE91830327C4FEBA972326F4FE832746
:1006BC00C4FEA1830327C4FEBA972326F4FE832726
:1006CC00C4FEC1830327C4FEBA972326F4FE8327F6
:1006DC00C4FE8D832326F4FE0327C4FEBA878A0743
:1006EC00BA9786073E878327C4FD998F2324F4FE8F
:1006FC00832784FE990713D747008327C4FEBA9734
:10070C003E85325445618280011122CE0010232691
:10071C00A4FE0327C4FEB7A79919938797993307AB
:10072C00F7028327C4FE85833E978327C4FE8D83FF
:10073C00BA97F1832326F4FEB70710001387070B33
:10074C008327C4FEBA9783C707003E8572440561B0
:10075C008280011106CE22CC00102326A4FE832712
:10076C00C4FE93F7F70F3E85EF00B0428327C4FE1B
:10077C003E85F240624405618280011106CE22CC96
:10078C0000102326A4FE2324B4FE8327C4FE9DC39D
:10079C008327C4FE9C43032784FE1377F70F238023
:1007AC00E7008327C4FE9C43138717008327C4FEEE
:1007BC0098C339A0832784FE93F7F70F3E85513FEA
:1007CC000100F240624405618280797106D622D420
:1007DC0026D24AD04ECE52CC0018232EA4FC232C69
:1007EC00B4FC232AC4FC2328D4FC8144130A000241
:1007FC00832744FD635EF0020149832984FD19A01F
:10080C000509850983C70900E5FF832744FD634576
:10081C00F900232A04FC39A0832744FDB387274120
:10082C00232AF4FC832704FD898B99C3130A000344
:10083C00832704FD858B9DEF19A8D2850325C4FD64
:10084C002D3F8504832744FDFD17232AF4FC8327C1
:10085C0044FDE344F0FE39A8832784FD83C70700D9
:10086C00BE850325C4FD113F8504832784FD8507C0
:10087C00232CF4FC832784FD83C70700F1FF19A800
:10088C00D2850325C4FDD53D8504832744FDFD1782
:10089C00232AF4FC832744FDE344F0FEA6873E851F
:1008AC00B250225492540259F249624A45618280F4
:1008BC00597186D6A2D4A6D2CAD0CECE8018232601
:1008CC00A4FA2324B4FA2322C4FA2320D4FA232E24
:1008DC00E4F8232CF4F8C287A30BF4F881490149FE
:1008EC00832784FA232EF4FC832784FA9DE3930751
:1008FC000003230CF4FAA30C04FA930784FB83265D
:10090C0084F90326C4F9BE850325C4FA7D3DAA8764
:10091C00FDA8832704FA8DC3032744FAA947631D56
:10092C00F700832784FA63D907008549832784FA63
:10093C00B307F040232EF4FC930484FBFD042380C6
:10094C000400032744FAC147631CF706A1A08327C0
:10095C00C4FDBD8B232CF4FC032784FDA54763DB6E
:10096C00E700834774F9938767FC032784FDBA97E4
:10097C00232CF4FC832784FD93F7F70FFD14938746
:10098C00070393F7F70F2380F4008327C4FD9183AB
:10099C00232EF4FC8327C4FDDDFB35A00325C4FD09
:1009AC00A533AA8793F7F70FFD149387070393F7E3
:1009BC00F70F2380F4000325C4FDD931232EA4FCAA
:1009CC008327C4FDE1FF638A09028327C4F98DC321
:1009DC00832784F9898B89CF9305D0020325C4FA28
:1009EC00693B05098327C4F9FD17232EF4F831A0C0
:1009FC00FD149307D0022380F400832684F9032688
:100A0C00C4F9A6850325C4FAC933AA87CA973E85BB
:100A1C00B650265496540659F64965618280397150
:100A2C0006DE22DC26DA4AD84ED680002326A4FC29
:100A3C002324B4FC2322C4FC81443DAC832784FCD6
:100A4C0003C70700930750026317F720832784FC22
:100A5C0085072324F4FC81494E89832784FC83C7B2
:100A6C00070063820722832784FC03C707009307D0
:100A7C0050026304F71E832784FC03C70700930707
:100A8C00D0026310F702832784FC85072324F4FC2F
:100A9C00854901A8832784FC85072324F4FC93E96A
:100AAC002900832784FC03C7070093070003E30393
:100ABC00F7FE15A0CA878A07CA9786073E8983273F
:100ACC0084FC83C70700938707FD3E99832784FC2A
:100ADC0085072324F4FC832784FC03C707009307B2
:100AEC00F00263FAE700832784FC03C7070093072F
:100AFC009003E3F1E7FC832784FC03C7070093070B
:100B0C003007631BF702832744FC1387470023221B
:100B1C00E4FC83A0070063840000868729A0B70744
:100B2C00100093878702CE864A86BE850325C4FCB7
:100B3C006939AA87BE9425AA832784FC03C70700BA
:100B4C00930740066315F702832744FC138747007D
:100B5C002322E4FC8C4313081006CE874A87854673
:100B6C0029460325C4FCA933AA87BE9409A283276E
:100B7C0084FC03C70700930750076316F70283270B
:100B8C0044FC138747002322E4FC9C43BE851308D6
:100B9C001006CE874A87814629460325C4FC093BAB
:100BAC00AA87BE94E9A0832784FC03C70700930798
:100BBC0080076316F702832744FC13874700232220
:100BCC00E4FC9C43BE8513081006CE874A878146F9
:100BDC0041460325C4FCE939AA87BE9449A883275A
:100BEC0084FC03C70700930780056316F70283276D
:100BFC0044FC138747002322E4FC9C43BE85130866
:100C0C001004CE874A87814641460325C4FC4D31EA
:100C1C00AA87BE94A9A8832784FC03C7070093075F
:100C2C0030066316F704832744FC138747002322FE
:100C3C00E4FC9C4393F7F70F230EF4FCA30E04FC87
:100C4C009307C4FDCE864A86BE850325C4FCB53EFB
:100C5C00AA87BE9429A8010011A00100832784FC57
:100C6C0083C70700BE850325C4FC013E850483278A
:100C7C0084FC85072324F4FC832784FC83C70700AA
:100C8C00E39E07DA11A001008327C4FC91C78327D8
:100C9C00C4FC9C4323800700A6873E85F250625417
:100CAC00D2544259B259216182805D7106D622D448
:100CBC000018232EA4FC4CC010C454C418C85CC823
:100CCC00232C0401232E140193070402232CF4FC7F
:100CDC00832784FD91172324F4FE832784FE3E860C
:100CEC008325C4FD0145253B2326A4FE8327C4FE92
:100CFC003E85B250225461618280797106D622D42D
:100D0C000018232EA4FC232604FE39A88327C4FE36
:100D1C00138717002326E4FE3E878327C4FDBA976A
:100D2C0083C707003E8535348327C4FE0327C4FDE3
:100D3C00BA9783C70700F9FB2945213C8327C4FEDA
:100D4C003E85B250225445618280797122D60018BA
:100D5C00232EA4FC232CB4FC0327C4FD832784FD81
:100D6C00D98F8D8BC9E78327C4FD2326F4FE8327F7
:100D7C0084FD2324F4FE89A08327C4FE9843B7077F
:100D8C00FFFE9387F7EF3E978327C4FE9C4393C7E0
:100D9C00F7FF7D8FB787808093870708F98F99C3FA
:100DAC00814741A08327C4FE91072326F4FE8327A5
:100DBC0084FE91072324F4FE8327C4FE98438327E3
:100DCC0084FE9C43E30AF7FA8327C4FE232EF4FC2B
:100DDC00832784FE232CF4FC19A88327C4FD8507E4
:100DEC00232EF4FC832784FD8507232CF4FC832716
:100DFC00C4FD83C7070099CB8327C4FD03C7070035
:100E0C00832784FD83C70700E309F7FC8327C4FD10
:100E1C0083C707003E87832784FD83C70700B3077A
:100E2C00F7403E85325445618280797122D6001894
:100E3C00232EA4FC232CB4FC232AC4FC8327C4FD3E
:100E4C002326F4FE15A08327C4FE13871700232640
:100E5C00E4FE032784FD1377F70F2380E700832735
:100E6C0044FDFD17232AF4FC832744FDE9FF832767
:100E7C00C4FD3E85325445618280797122D60018BA
:100E8C00232EA4FC232CB4FC8327C4FD2326F4FEC0
:100E9C00832784FD2324F4FE1DA0832784FE03C72F
:100EAC0007008327C4FE2380E7008327C4FE850741
:100EBC002326F4FE832784FE85072324F4FE832750
:100ECC0084FE83C70700F1FB8327C4FD3E853254A3
:100EDC0045618280797122D60018232EA4FC8327C9
:100EEC00C4FD2326F4FE232404FE8327C4FE81EBD9
:100EFC0081470DA0832784FE85072324F4FE8327D6
:100F0C00C4FE138717002326E4FE83C70700FDF3F6
:100F1C00832784FE3E85325445618280411106C68A
:100F2C0022C4000881451145EFF0CFAF814515452E
:100F3C00EFF04FAF81451945EFF0CFAE81451D4520
:100F4C00EFF04FAE81450D45EFF0CFAD0100B24053
:100F5C00224441018280011106CE22CC00102326AE
:100F6C00A4FE81453D45EFF0EFAB81453945EFF0EF
:100F7C006FAB81453545EFF0EFAA81453145EFF078
:100F8C006FAA8327C4FE6356F00081454145EFF0FC
:100F9C006FA90327C4FE854763D6E70081452D451D
:100FAC00EFF04FA80327C4FE894763D6E7008145BD
:100FBC000145EFF02FA70327C4FE8D4763D6E7004A
:100FCC0081450545EFF00FA60100F2406244056132
:100FDC008280797122D60018232EA4FC232CB4FC19
:100FEC00232AC4FC2328D4FC13070002832784FD86
:100FFC00B307F7400327C4FDB317F7002326F4FE0D
:10100C00B727101AA1070327C4FE98C3B727101AD5
:10101C00B107032744FD98C3832784FD93F6F70398
:10102C00832704FD139787009167938707F07D8FC3
:10103C00B727101AC107558F98C301003254456168
:10104C008280011122CE00102326A4FE2324B4FE9C
:10105C00832784FEC207BE860327C4FEC167FD1723
:10106C00F98F33E7F600B727101AD10798C30100A0
:10107C00724405618280797122D60018232EA4FC5B
:10108C00B727101AC1079C432326F4FE8327C4FDFF
:10109C00C2073E878327C4FEBE86C167FD17F58F46
:1010AC00D98F2326F4FEB727101AC1070327C4FED5
:1010BC0098C30100325445618280011122CE001088
:1010CC002326A4FE2324B4FE832784FEA107054710
:1010DC003317F7008567938707F0B376F7008327FC
:1010EC00C4FE0547B317F70013F7F70FB727101A0D
:1010FC00558F98C30100724405618280011122CE84
:10110C000010B727101A9C432326F4FE8327C4FE35
:10111C003E85724405618280797122D60018232E97
:10112C00A4FC232CB4FC832784FD958793F7F77FCD
:10113C002326F4FE832784FDFD8B91C78327C4FEF1
:10114C0085072326F4FE232404FE0DA80100B727EF
:10115C00101A9C43E18793F7870FF5FB832784FED6
:10116C008A070327C4FD3E97B727101AE1071843D7
:10117C0098C3832784FE85072324F4FE032784FE6B
:10118C008327C4FEE344F7FC01000100325445619F
:10119C008280797122D60018232EA4FC232CB4FC57
:1011AC00832784FD958793F7F77F2326F4FE832707
:1011BC0084FDFD8B91C78327C4FE85072326F4FE8F
:1011CC00232404FE15A80100B727101A9C43C187DD
:1011DC0093F7F70FF5DBB727101A1387070283274E
:1011EC0084FE8A078326C4FDB697184398C38327C9
:1011FC0084FE85072324F4FE032784FE8327C4FE84
:10120C00E343F7FC01000100325445618280411137
:10121C0022C60008B737101A23A007000100324479
:10122C0041018280411122C60008B737101A91077C
:10123C00054798C30100324441018280411122C606
:10124C000008B737101A910723A007000100324499
:10125C0041018280411122C60008B737101A9C4305
:10126C003E85324441018280011122CE001023269A
:10127C00A4FEAE872315F4FEB777101A9107984396
:10128C00B777101A91071367270098C3B707101A7E
:10129C00B1071307300898C38357A4FEA183C20774
:1012AC00C1833E87B707101A91071377F70F98C3BE
:1012BC000357A4FEB707101A1377F70F98C3B70795
:1012CC00101AA1071307700A98C3B707101AB107B1
:1012DC000D4798C3B707101A91079C4313F7070FD4
:1012EC00B707101A91071367270098C301007244BF
:1012FC0005618280797122D60018232EA4FC232C40
:10130C00B4FC91A80100B707101AD1079C4393F7BE
:10131C000702F5DB232604FE35A08327C4FD1387C3
:10132C001700232EE4FC03C70700B707101A98C355
:10133C00832784FDFD17232CF4FC8327C4FE85072B
:10134C002326F4FE0327C4FE9307F00363E5E700AE
:10135C00832784FDF9F3832784FDCDF70100010079
:10136C00325445618280411122C600080100B70742
:10137C00101AD1079C4313F717008547E319F7FEA2
:10138C00B707101A9C4393F7F70F3E85324441017F
:10139C008280011122CE0010AA87A307F4FE01005F
:1013AC00B707101AD1079C4393F70702F5DBB70771
:1013BC00101A0347F4FE98C3010072440561828041
:1013CC00411122C600080100B707101AD1079C432F
:1013DC0093F70704F5DB01000100324441018280E0
:1013EC00011122CE0010AA87A307F4FEB707101A2A
:1013FC00B10783C7070013F7F70FB707101AB10728
:10140C001377F7071377F70F2380E700B707101A46
:10141C0091070347F4FE2380E70001007244056145
:10142C008280011106CE22CC00102326A4FE0325B7
:10143C00C4FE112001A0011122CE00102326A4FE0F
:10144C008327C4FE99C7B777101AD107054798C3ED
:10145C0031A0B777101AD10723A00700B777101A5D
:10146C0091079843B777101A91071367470098C3F1
:10147C000100724405618280797122D60018232EF6
:10148C00A4FC232604FE39A001008327C4FE850793
:10149C002326F4FE8327C4FD0327C4FEE346F7FE90
:1014AC0001000100325445618280011106CE22CC2C
:1014BC0000102326A4FE2324B4FEB70710001385C6
:1014CC000703EFF09F830100F240624405618280C4
:1014DC00797106D622D40018232EA4FC232604FEF0
:1014EC000327C4FDBD4763EDE70A8327C4FD1397AB
:1014FC002700B707100093870707BA979C4382878A
:10150C00F32700782326F4FE6DA0F327107823260A
:10151C00F4FE45A0F32720782326F4FE59A8F327E0
:10152C0030782326F4FE71A0F32740782326F4FEAE
:10153C0049A0F32750782326F4FEA5A8F32760785A
:10154C002326F4FEBDA0F32770782326F4FE95A085
:10155C00F32780782326F4FEA9A8F3279078232676
:10156C00F4FE81A8F327A0782326F4FE99A0F32794
:10157C00B0782326F4FE35A8F327C0782326F4FE92
:10158C000DA8F327D0782326F4FE25A0F327E078C6
:10159C002326F4FE39A8F327F0782326F4FE11A8AD
:1015AC008325C4FDB707100013854705EFF0EFEF57
:1015BC0001008327C4FE3E85B250225445618280CF
:1015CC00000000000000000000000000000000000F
:020000040010EA
:1000000068656C6C6F20776F726C64212068657214
:1000100065277320796F75722063686172616374FC
:1000200065723A2025630A00286E756C6C29000001
:100030006370755F706572665F7365743A206E6F8A
:100040007420696D706C656D656E7465642079658A
:1000500074000000435352202564206E6F74207991
:10006000657420737570706F727465640A000000A7
:100070000C15000016150000201500002A150000C0
:10008000341500003E150000481500005215000010
:100090005C15000066150000701500007A15000060
:1000A000841500008E15000098150000A2150000B0
:1000B00000010202030304050506070708080900FA
:040000030000008C6D
:00000001FF
